{"abi":[{"type":"constructor","inputs":[],"stateMutability":"nonpayable"},{"type":"function","name":"DEFAULT_ADMIN_ROLE","inputs":[],"outputs":[{"name":"","type":"bytes32","internalType":"bytes32"}],"stateMutability":"view"},{"type":"function","name":"EXECUTOR_ROLE","inputs":[],"outputs":[{"name":"","type":"bytes32","internalType":"bytes32"}],"stateMutability":"view"},{"type":"function","name":"RELAYER_ROLE","inputs":[],"outputs":[{"name":"","type":"bytes32","internalType":"bytes32"}],"stateMutability":"view"},{"type":"function","name":"UPGRADE_INTERFACE_VERSION","inputs":[],"outputs":[{"name":"","type":"string","internalType":"string"}],"stateMutability":"view"},{"type":"function","name":"addExecutor","inputs":[{"name":"executor","type":"address","internalType":"address"}],"outputs":[],"stateMutability":"nonpayable"},{"type":"function","name":"addRelayer","inputs":[{"name":"relayer","type":"address","internalType":"address"}],"outputs":[],"stateMutability":"nonpayable"},{"type":"function","name":"executeVRF","inputs":[{"name":"requestId","type":"bytes32","internalType":"bytes32"},{"name":"publicKey","type":"uint256[2]","internalType":"uint256[2]"},{"name":"randomness","type":"bytes","internalType":"bytes"},{"name":"proof","type":"bytes","internalType":"bytes"},{"name":"signature","type":"bytes","internalType":"bytes"}],"outputs":[],"stateMutability":"payable"},{"type":"function","name":"getRoleAdmin","inputs":[{"name":"role","type":"bytes32","internalType":"bytes32"}],"outputs":[{"name":"","type":"bytes32","internalType":"bytes32"}],"stateMutability":"view"},{"type":"function","name":"grantRole","inputs":[{"name":"role","type":"bytes32","internalType":"bytes32"},{"name":"account","type":"address","internalType":"address"}],"outputs":[],"stateMutability":"nonpayable"},{"type":"function","name":"handle","inputs":[{"name":"_origin","type":"uint32","internalType":"uint32"},{"name":"_sender","type":"bytes32","internalType":"bytes32"},{"name":"_message","type":"bytes","internalType":"bytes"}],"outputs":[],"stateMutability":"payable"},{"type":"function","name":"hasRole","inputs":[{"name":"role","type":"bytes32","internalType":"bytes32"},{"name":"account","type":"address","internalType":"address"}],"outputs":[{"name":"","type":"bool","internalType":"bool"}],"stateMutability":"view"},{"type":"function","name":"initialize","inputs":[{"name":"_admin","type":"address","internalType":"address"},{"name":"_proofVerifier","type":"address","internalType":"address"},{"name":"_mailbox","type":"address","internalType":"address"}],"outputs":[],"stateMutability":"nonpayable"},{"type":"function","name":"mailbox","inputs":[],"outputs":[{"name":"","type":"address","internalType":"contract IMailbox"}],"stateMutability":"view"},{"type":"function","name":"proofVerifier","inputs":[],"outputs":[{"name":"","type":"address","internalType":"contract IVRFProofVerifier"}],"stateMutability":"view"},{"type":"function","name":"proxiableUUID","inputs":[],"outputs":[{"name":"","type":"bytes32","internalType":"bytes32"}],"stateMutability":"view"},{"type":"function","name":"recoverSigner","inputs":[{"name":"ethSignedMessageHash","type":"bytes32","internalType":"bytes32"},{"name":"signature","type":"bytes","internalType":"bytes"}],"outputs":[{"name":"","type":"address","internalType":"address"}],"stateMutability":"pure"},{"type":"function","name":"renounceRole","inputs":[{"name":"role","type":"bytes32","internalType":"bytes32"},{"name":"callerConfirmation","type":"address","internalType":"address"}],"outputs":[],"stateMutability":"nonpayable"},{"type":"function","name":"revokeRole","inputs":[{"name":"role","type":"bytes32","internalType":"bytes32"},{"name":"account","type":"address","internalType":"address"}],"outputs":[],"stateMutability":"nonpayable"},{"type":"function","name":"splitSignature","inputs":[{"name":"sig","type":"bytes","internalType":"bytes"}],"outputs":[{"name":"r","type":"bytes32","internalType":"bytes32"},{"name":"s","type":"bytes32","internalType":"bytes32"},{"name":"v","type":"uint8","internalType":"uint8"}],"stateMutability":"pure"},{"type":"function","name":"supportsInterface","inputs":[{"name":"interfaceId","type":"bytes4","internalType":"bytes4"}],"outputs":[{"name":"","type":"bool","internalType":"bool"}],"stateMutability":"view"},{"type":"function","name":"upgradeToAndCall","inputs":[{"name":"newImplementation","type":"address","internalType":"address"},{"name":"data","type":"bytes","internalType":"bytes"}],"outputs":[],"stateMutability":"payable"},{"type":"function","name":"verifyExecutorSignature","inputs":[{"name":"requestId","type":"bytes32","internalType":"bytes32"},{"name":"randomness","type":"bytes","internalType":"bytes"},{"name":"proof","type":"bytes","internalType":"bytes"},{"name":"signature","type":"bytes","internalType":"bytes"},{"name":"signer","type":"address","internalType":"address"}],"outputs":[{"name":"","type":"bool","internalType":"bool"}],"stateMutability":"pure"},{"type":"event","name":"Initialized","inputs":[{"name":"version","type":"uint64","indexed":false,"internalType":"uint64"}],"anonymous":false},{"type":"event","name":"ReceivedMessage","inputs":[{"name":"_origin","type":"uint32","indexed":false,"internalType":"uint32"},{"name":"_sender","type":"bytes32","indexed":false,"internalType":"bytes32"},{"name":"_data","type":"string","indexed":false,"internalType":"string"}],"anonymous":false},{"type":"event","name":"RequestReceived","inputs":[{"name":"requestId","type":"bytes32","indexed":true,"internalType":"bytes32"}],"anonymous":false},{"type":"event","name":"RoleAdminChanged","inputs":[{"name":"role","type":"bytes32","indexed":true,"internalType":"bytes32"},{"name":"previousAdminRole","type":"bytes32","indexed":true,"internalType":"bytes32"},{"name":"newAdminRole","type":"bytes32","indexed":true,"internalType":"bytes32"}],"anonymous":false},{"type":"event","name":"RoleGranted","inputs":[{"name":"role","type":"bytes32","indexed":true,"internalType":"bytes32"},{"name":"account","type":"address","indexed":true,"internalType":"address"},{"name":"sender","type":"address","indexed":true,"internalType":"address"}],"anonymous":false},{"type":"event","name":"RoleRevoked","inputs":[{"name":"role","type":"bytes32","indexed":true,"internalType":"bytes32"},{"name":"account","type":"address","indexed":true,"internalType":"address"},{"name":"sender","type":"address","indexed":true,"internalType":"address"}],"anonymous":false},{"type":"event","name":"Upgraded","inputs":[{"name":"implementation","type":"address","indexed":true,"internalType":"address"}],"anonymous":false},{"type":"event","name":"VRFExecuted","inputs":[{"name":"requestId","type":"bytes32","indexed":true,"internalType":"bytes32"}],"anonymous":false},{"type":"error","name":"AccessControlBadConfirmation","inputs":[]},{"type":"error","name":"AccessControlUnauthorizedAccount","inputs":[{"name":"account","type":"address","internalType":"address"},{"name":"neededRole","type":"bytes32","internalType":"bytes32"}]},{"type":"error","name":"AddressEmptyCode","inputs":[{"name":"target","type":"address","internalType":"address"}]},{"type":"error","name":"ERC1967InvalidImplementation","inputs":[{"name":"implementation","type":"address","internalType":"address"}]},{"type":"error","name":"ERC1967NonPayable","inputs":[]},{"type":"error","name":"FailedCall","inputs":[]},{"type":"error","name":"InvalidExecutorSignature","inputs":[{"name":"executor","type":"address","internalType":"address"}]},{"type":"error","name":"InvalidInitialization","inputs":[]},{"type":"error","name":"InvalidProof","inputs":[]},{"type":"error","name":"InvalidRequestStatus","inputs":[{"name":"got","type":"uint8","internalType":"enum VRFCoreV1.RequestStatus"},{"name":"expected","type":"uint8","internalType":"enum VRFCoreV1.RequestStatus"}]},{"type":"error","name":"InvalidValidator","inputs":[{"name":"validator","type":"address","internalType":"address"}]},{"type":"error","name":"NotInitializing","inputs":[]},{"type":"error","name":"RequestAlreadyProcessed","inputs":[]},{"type":"error","name":"UUPSUnauthorizedCallContext","inputs":[]},{"type":"error","name":"UUPSUnsupportedProxiableUUID","inputs":[{"name":"slot","type":"bytes32","internalType":"bytes32"}]}],"bytecode":{"object":"0x60a06040523073ffffffffffffffffffffffffffffffffffffffff1660809073ffffffffffffffffffffffffffffffffffffffff16815250348015610042575f80fd5b5061005161005660201b60201c565b6101d1565b5f61006561015460201b60201c565b9050805f0160089054906101000a900460ff16156100af576040517ff92ee8a900000000000000000000000000000000000000000000000000000000815260040160405180910390fd5b67ffffffffffffffff8016815f015f9054906101000a900467ffffffffffffffff1667ffffffffffffffff16146101515767ffffffffffffffff815f015f6101000a81548167ffffffffffffffff021916908367ffffffffffffffff1602179055507fc7f505b2f371ae2175ee4913f4499e1f2633a7b5936321eed1cdaeb6115181d267ffffffffffffffff60405161014891906101b8565b60405180910390a15b50565b5f8061016461016d60201b60201c565b90508091505090565b5f7ff0c57e16840df040f15088dc2f81fe391c3923bec73e23a9662efc9c229c6a005f1b905090565b5f67ffffffffffffffff82169050919050565b6101b281610196565b82525050565b5f6020820190506101cb5f8301846101a9565b92915050565b6080516130056101f75f395f81816113fb01528181611450015261160f01526130055ff3fe608060405260043610610134575f3560e01c806391d14854116100aa578063ad3cb1cc1161006e578063ad3cb1cc14610404578063b23e0b2a1461042e578063c0c53b8b1461046a578063d5438eae14610492578063d547741f146104bc578063dd39f00d146104e457610134565b806391d14854146102fa578063926d7d7f1461033657806397aba7f914610360578063a217fddf1461039c578063a7bb5803146103c657610134565b80632f2ff15d116100fc5780632f2ff15d1461021e57806336568abe146102465780634f1ef2861461026e57806352d1902d1461028a57806356d5d475146102b45780637fa417b3146102d057610134565b806301d47f0c1461013857806301ffc9a71461015457806307bd0265146101905780631f5a0bbe146101ba578063248a9ca3146101e2575b5f80fd5b610152600480360381019061014d9190611e9d565b61050c565b005b34801561015f575f80fd5b5061017a60048036038101906101759190611fc9565b61099f565b604051610187919061200e565b60405180910390f35b34801561019b575f80fd5b506101a4610a18565b6040516101b19190612036565b60405180910390f35b3480156101c5575f80fd5b506101e060048036038101906101db91906120a9565b610a3c565b005b3480156101ed575f80fd5b50610208600480360381019061020391906120d4565b610a77565b6040516102159190612036565b60405180910390f35b348015610229575f80fd5b50610244600480360381019061023f91906120ff565b610aa1565b005b348015610251575f80fd5b5061026c600480360381019061026791906120ff565b610ac3565b005b61028860048036038101906102839190612275565b610b3e565b005b348015610295575f80fd5b5061029e610b5d565b6040516102ab9190612036565b60405180910390f35b6102ce60048036038101906102c99190612308565b610b8e565b005b3480156102db575f80fd5b506102e4610c1a565b6040516102f191906123d4565b60405180910390f35b348015610305575f80fd5b50610320600480360381019061031b91906120ff565b610c3f565b60405161032d919061200e565b60405180910390f35b348015610341575f80fd5b5061034a610cb0565b6040516103579190612036565b60405180910390f35b34801561036b575f80fd5b50610386600480360381019061038191906123ed565b610cd4565b6040516103939190612456565b60405180910390f35b3480156103a7575f80fd5b506103b0610d3e565b6040516103bd9190612036565b60405180910390f35b3480156103d1575f80fd5b506103ec60048036038101906103e7919061246f565b610d44565b6040516103fb939291906124d1565b60405180910390f35b34801561040f575f80fd5b50610418610da9565b6040516104259190612566565b60405180910390f35b348015610439575f80fd5b50610454600480360381019061044f9190612586565b610de2565b604051610461919061200e565b60405180910390f35b348015610475575f80fd5b50610490600480360381019061048b9190612651565b610e85565b005b34801561049d575f80fd5b506104a66110c7565b6040516104b391906126c1565b60405180910390f35b3480156104c7575f80fd5b506104e260048036038101906104dd91906120ff565b6110ec565b005b3480156104ef575f80fd5b5061050a600480360381019061050591906120a9565b61110e565b005b7fd8aa0f3194971a2a116679f7c2090f6939c8d4e01a2a8d7e41d55e5351469e6361053681611149565b5f805f8b81526020019081526020015f2090505f600381111561055c5761055b6126da565b5b816003015f9054906101000a900460ff16600381111561057f5761057e6126da565b5b146105d357806003015f9054906101000a900460ff165f6040517fa0be636e0000000000000000000000000000000000000000000000000000000081526004016105ca92919061274d565b60405180910390fd5b6106a98a89898080601f0160208091040260200160405190810160405280939291908181526020018383808284375f81840152601f19601f8201169050808301925050505050505088888080601f0160208091040260200160405190810160405280939291908181526020018383808284375f81840152601f19601f8201169050808301925050505050505087878080601f0160208091040260200160405190810160405280939291908181526020018383808284375f81840152601f19601f8201169050808301925050505050505033610de2565b6106ea57336040517f0693ae810000000000000000000000000000000000000000000000000000000081526004016106e19190612456565b60405180910390fd5b60045f9054906101000a900473ffffffffffffffffffffffffffffffffffffffff1673ffffffffffffffffffffffffffffffffffffffff1663a90ec1c58a88888c8c6040518663ffffffff1660e01b815260040161074c9594939291906127c9565b602060405180830381865afa158015610767573d5f803e3d5ffd5b505050506040513d601f19601f8201168201806040525081019061078b919061283a565b6107c1576040517f09bde33900000000000000000000000000000000000000000000000000000000815260040160405180910390fd5b338160030160016101000a81548173ffffffffffffffffffffffffffffffffffffffff021916908373ffffffffffffffffffffffffffffffffffffffff1602179055508881600401906002610817929190611d7c565b50878782600701918261082b929190612a69565b50858582600601918261083f929190612a69565b506002816003015f6101000a81548160ff02191690836003811115610867576108666126da565b5b02179055506108808a600161115d90919063ffffffff16565b50897feba37516eae8078054e0eeb0ac756b908d5735aa72b5fac72f04da912287fab560405160405180910390a25f8a89898c8a8a6040516020016108ca96959493929190612b36565b604051602081830303815290604052905060035f9054906101000a900473ffffffffffffffffffffffffffffffffffffffff1673ffffffffffffffffffffffffffffffffffffffff1663fa31de0134845f015f9054906101000a900463ffffffff168560010154856040518563ffffffff1660e01b815260040161095093929190612bdc565b60206040518083038185885af115801561096c573d5f803e3d5ffd5b50505050506040513d601f19601f820116820180604052508101906109919190612c2c565b505050505050505050505050565b5f7f7965db0b000000000000000000000000000000000000000000000000000000007bffffffffffffffffffffffffffffffffffffffffffffffffffffffff1916827bffffffffffffffffffffffffffffffffffffffffffffffffffffffff19161480610a115750610a1082611172565b5b9050919050565b7fd8aa0f3194971a2a116679f7c2090f6939c8d4e01a2a8d7e41d55e5351469e6381565b5f801b610a4881611149565b610a727fd8aa0f3194971a2a116679f7c2090f6939c8d4e01a2a8d7e41d55e5351469e63836111db565b505050565b5f80610a816112d3565b9050805f015f8481526020019081526020015f2060010154915050919050565b610aaa82610a77565b610ab381611149565b610abd83836111db565b50505050565b610acb6112fa565b73ffffffffffffffffffffffffffffffffffffffff168173ffffffffffffffffffffffffffffffffffffffff1614610b2f576040517f6697b23200000000000000000000000000000000000000000000000000000000815260040160405180910390fd5b610b398282611301565b505050565b610b466113f9565b610b4f826114df565b610b5982826114ef565b5050565b5f610b6661160d565b7f360894a13ba1a3210667c828492db98dca3e2076cc3735a920a3ca505d382bbc5f1b905090565b7fe2b7fb3b832174769106daebcfd6d1970523240dda11281102db9363b83b0dc4610bb881611149565b7fba67744c899113a84f615d51af5d82f5fedcf26c9a474d9363c3ad9b0bd501ac85858585604051610bed9493929190612c83565b60405180910390a15f8383810190610c0591906120d4565b9050610c12818787611694565b505050505050565b60045f9054906101000a900473ffffffffffffffffffffffffffffffffffffffff1681565b5f80610c496112d3565b9050805f015f8581526020019081526020015f205f015f8473ffffffffffffffffffffffffffffffffffffffff1673ffffffffffffffffffffffffffffffffffffffff1681526020019081526020015f205f9054906101000a900460ff1691505092915050565b7fe2b7fb3b832174769106daebcfd6d1970523240dda11281102db9363b83b0dc481565b5f805f80610ce185610d44565b9250925092506001868285856040515f8152602001604052604051610d099493929190612cc1565b6020604051602081039080840390855afa158015610d29573d5f803e3d5ffd5b50505060206040510351935050505092915050565b5f801b81565b5f805f6041845114610d8b576040517f08c379a0000000000000000000000000000000000000000000000000000000008152600401610d8290612d4e565b60405180910390fd5b602084015192506040840151915060608401515f1a90509193909250565b6040518060400160405280600581526020017f352e302e3000000000000000000000000000000000000000000000000000000081525081565b5f80868686604051602001610df993929190612dc6565b60405160208183030381529060405290505f818051906020012090505f81604051602001610e279190612e4e565b6040516020818303038152906040528051906020012090508473ffffffffffffffffffffffffffffffffffffffff16610e608288610cd4565b73ffffffffffffffffffffffffffffffffffffffff1614935050505095945050505050565b5f610e8e6117c1565b90505f815f0160089054906101000a900460ff161590505f825f015f9054906101000a900467ffffffffffffffff1690505f808267ffffffffffffffff16148015610ed65750825b90505f60018367ffffffffffffffff16148015610f0957505f3073ffffffffffffffffffffffffffffffffffffffff163b145b905081158015610f17575080155b15610f4e576040517ff92ee8a900000000000000000000000000000000000000000000000000000000815260040160405180910390fd5b6001855f015f6101000a81548167ffffffffffffffff021916908367ffffffffffffffff1602179055508315610f9b576001855f0160086101000a81548160ff0219169083151502179055505b610fa36117d4565b610fab6117de565b610fb75f801b896111db565b50610fe27fe2b7fb3b832174769106daebcfd6d1970523240dda11281102db9363b83b0dc4876111db565b508660045f6101000a81548173ffffffffffffffffffffffffffffffffffffffff021916908373ffffffffffffffffffffffffffffffffffffffff1602179055508560035f6101000a81548173ffffffffffffffffffffffffffffffffffffffff021916908373ffffffffffffffffffffffffffffffffffffffff16021790555083156110bd575f855f0160086101000a81548160ff0219169083151502179055507fc7f505b2f371ae2175ee4913f4499e1f2633a7b5936321eed1cdaeb6115181d260016040516110b49190612ebf565b60405180910390a15b5050505050505050565b60035f9054906101000a900473ffffffffffffffffffffffffffffffffffffffff1681565b6110f582610a77565b6110fe81611149565b6111088383611301565b50505050565b5f801b61111a81611149565b6111447fe2b7fb3b832174769106daebcfd6d1970523240dda11281102db9363b83b0dc4836111db565b505050565b61115a816111556112fa565b6117e8565b50565b5f61116a835f0183611839565b905092915050565b5f7f01ffc9a7000000000000000000000000000000000000000000000000000000007bffffffffffffffffffffffffffffffffffffffffffffffffffffffff1916827bffffffffffffffffffffffffffffffffffffffffffffffffffffffff1916149050919050565b5f806111e56112d3565b90506111f18484610c3f565b6112c8576001815f015f8681526020019081526020015f205f015f8573ffffffffffffffffffffffffffffffffffffffff1673ffffffffffffffffffffffffffffffffffffffff1681526020019081526020015f205f6101000a81548160ff0219169083151502179055506112646112fa565b73ffffffffffffffffffffffffffffffffffffffff168373ffffffffffffffffffffffffffffffffffffffff16857f2f8788117e7eff1d82e926ec794901d17c78024a50270940304540a733656f0d60405160405180910390a460019150506112cd565b5f9150505b92915050565b5f7f02dd7bc7dec4dceedda775e58dd541e08a116c6c53815c0bd028192f7b626800905090565b5f33905090565b5f8061130b6112d3565b90506113178484610c3f565b156113ee575f815f015f8681526020019081526020015f205f015f8573ffffffffffffffffffffffffffffffffffffffff1673ffffffffffffffffffffffffffffffffffffffff1681526020019081526020015f205f6101000a81548160ff02191690831515021790555061138a6112fa565b73ffffffffffffffffffffffffffffffffffffffff168373ffffffffffffffffffffffffffffffffffffffff16857ff6391f5c32d9c69d2a47ea670b442974b53935d1edc7fd64eb21e047a839171b60405160405180910390a460019150506113f3565b5f9150505b92915050565b7f000000000000000000000000000000000000000000000000000000000000000073ffffffffffffffffffffffffffffffffffffffff163073ffffffffffffffffffffffffffffffffffffffff1614806114a657507f000000000000000000000000000000000000000000000000000000000000000073ffffffffffffffffffffffffffffffffffffffff1661148d611935565b73ffffffffffffffffffffffffffffffffffffffff1614155b156114dd576040517fe07c8dba00000000000000000000000000000000000000000000000000000000815260040160405180910390fd5b565b5f801b6114eb81611149565b5050565b8173ffffffffffffffffffffffffffffffffffffffff166352d1902d6040518163ffffffff1660e01b8152600401602060405180830381865afa92505050801561155757506040513d601f19601f820116820180604052508101906115549190612c2c565b60015b61159857816040517f4c9c8ce300000000000000000000000000000000000000000000000000000000815260040161158f9190612456565b60405180910390fd5b7f360894a13ba1a3210667c828492db98dca3e2076cc3735a920a3ca505d382bbc5f1b81146115fe57806040517faa1d49a40000000000000000000000000000000000000000000000000000000081526004016115f59190612036565b60405180910390fd5b6116088383611988565b505050565b7f000000000000000000000000000000000000000000000000000000000000000073ffffffffffffffffffffffffffffffffffffffff163073ffffffffffffffffffffffffffffffffffffffff1614611692576040517fe07c8dba00000000000000000000000000000000000000000000000000000000815260040160405180910390fd5b565b5f805f8581526020019081526020015f2060020154146116e0576040517fa6bc74c400000000000000000000000000000000000000000000000000000000815260040160405180910390fd5b815f808581526020019081526020015f205f015f6101000a81548163ffffffff021916908363ffffffff160217905550805f808581526020019081526020015f2060010181905550425f808581526020019081526020015f20600201819055505f805f8581526020019081526020015f206003015f6101000a81548160ff02191690836003811115611775576117746126da565b5b021790555061178e8360016119fa90919063ffffffff16565b50827f01fec4a455e3c96956abfbcc392b36849c44e005cdd404e99f5247731e4e65bf60405160405180910390a2505050565b5f806117cb611a0f565b90508091505090565b6117dc611a38565b565b6117e6611a38565b565b6117f28282610c3f565b6118355780826040517fe2517d3f00000000000000000000000000000000000000000000000000000000815260040161182c929190612ed8565b60405180910390fd5b5050565b5f80836001015f8481526020019081526020015f205490505f811461192a575f6001826118669190612f2c565b90505f6001865f018054905061187c9190612f2c565b90508082146118e2575f865f01828154811061189b5761189a612f5f565b5b905f5260205f200154905080875f0184815481106118bc576118bb612f5f565b5b905f5260205f20018190555083876001015f8381526020019081526020015f2081905550505b855f018054806118f5576118f4612f8c565b5b600190038181905f5260205f20015f90559055856001015f8681526020019081526020015f205f90556001935050505061192f565b5f9150505b92915050565b5f6119617f360894a13ba1a3210667c828492db98dca3e2076cc3735a920a3ca505d382bbc5f1b611a78565b5f015f9054906101000a900473ffffffffffffffffffffffffffffffffffffffff16905090565b61199182611a81565b8173ffffffffffffffffffffffffffffffffffffffff167fbc7cd75a20ee27fd9adebab32041f755214dbc6bffa90cc0225b39da2e5c2d3b60405160405180910390a25f815111156119ed576119e78282611b4a565b506119f6565b6119f5611bca565b5b5050565b5f611a07835f0183611c06565b905092915050565b5f7ff0c57e16840df040f15088dc2f81fe391c3923bec73e23a9662efc9c229c6a005f1b905090565b611a40611c6d565b611a76576040517fd7e6bcf800000000000000000000000000000000000000000000000000000000815260040160405180910390fd5b565b5f819050919050565b5f8173ffffffffffffffffffffffffffffffffffffffff163b03611adc57806040517f4c9c8ce3000000000000000000000000000000000000000000000000000000008152600401611ad39190612456565b60405180910390fd5b80611b087f360894a13ba1a3210667c828492db98dca3e2076cc3735a920a3ca505d382bbc5f1b611a78565b5f015f6101000a81548173ffffffffffffffffffffffffffffffffffffffff021916908373ffffffffffffffffffffffffffffffffffffffff16021790555050565b60605f808473ffffffffffffffffffffffffffffffffffffffff1684604051611b739190612fb9565b5f60405180830381855af49150503d805f8114611bab576040519150601f19603f3d011682016040523d82523d5f602084013e611bb0565b606091505b5091509150611bc0858383611c8b565b9250505092915050565b5f341115611c04576040517fb398979f00000000000000000000000000000000000000000000000000000000815260040160405180910390fd5b565b5f611c118383611d18565b611c6357825f0182908060018154018082558091505060019003905f5260205f20015f9091909190915055825f0180549050836001015f8481526020019081526020015f208190555060019050611c67565b5f90505b92915050565b5f611c766117c1565b5f0160089054906101000a900460ff16905090565b606082611ca057611c9b82611d38565b611d10565b5f8251148015611cc657505f8473ffffffffffffffffffffffffffffffffffffffff163b145b15611d0857836040517f9996b315000000000000000000000000000000000000000000000000000000008152600401611cff9190612456565b60405180910390fd5b819050611d11565b5b9392505050565b5f80836001015f8481526020019081526020015f20541415905092915050565b5f81511115611d4a5780518082602001fd5b6040517fd6bda27500000000000000000000000000000000000000000000000000000000815260040160405180910390fd5b8260028101928215611dab579160200282015b82811115611daa578235825591602001919060010190611d8f565b5b509050611db89190611dbc565b5090565b5b80821115611dd3575f815f905550600101611dbd565b5090565b5f604051905090565b5f80fd5b5f80fd5b5f819050919050565b611dfa81611de8565b8114611e04575f80fd5b50565b5f81359050611e1581611df1565b92915050565b5f80fd5b5f81905082602060020282011115611e3a57611e39611e1b565b5b92915050565b5f80fd5b5f80fd5b5f8083601f840112611e5d57611e5c611e40565b5b8235905067ffffffffffffffff811115611e7a57611e79611e44565b5b602083019150836001820283011115611e9657611e95611e1b565b5b9250929050565b5f805f805f805f8060c0898b031215611eb957611eb8611de0565b5b5f611ec68b828c01611e07565b9850506020611ed78b828c01611e1f565b975050606089013567ffffffffffffffff811115611ef857611ef7611de4565b5b611f048b828c01611e48565b9650965050608089013567ffffffffffffffff811115611f2757611f26611de4565b5b611f338b828c01611e48565b945094505060a089013567ffffffffffffffff811115611f5657611f55611de4565b5b611f628b828c01611e48565b92509250509295985092959890939650565b5f7fffffffff0000000000000000000000000000000000000000000000000000000082169050919050565b611fa881611f74565b8114611fb2575f80fd5b50565b5f81359050611fc381611f9f565b92915050565b5f60208284031215611fde57611fdd611de0565b5b5f611feb84828501611fb5565b91505092915050565b5f8115159050919050565b61200881611ff4565b82525050565b5f6020820190506120215f830184611fff565b92915050565b61203081611de8565b82525050565b5f6020820190506120495f830184612027565b92915050565b5f73ffffffffffffffffffffffffffffffffffffffff82169050919050565b5f6120788261204f565b9050919050565b6120888161206e565b8114612092575f80fd5b50565b5f813590506120a38161207f565b92915050565b5f602082840312156120be576120bd611de0565b5b5f6120cb84828501612095565b91505092915050565b5f602082840312156120e9576120e8611de0565b5b5f6120f684828501611e07565b91505092915050565b5f806040838503121561211557612114611de0565b5b5f61212285828601611e07565b925050602061213385828601612095565b9150509250929050565b5f80fd5b5f601f19601f8301169050919050565b7f4e487b71000000000000000000000000000000000000000000000000000000005f52604160045260245ffd5b61218782612141565b810181811067ffffffffffffffff821117156121a6576121a5612151565b5b80604052505050565b5f6121b8611dd7565b90506121c4828261217e565b919050565b5f67ffffffffffffffff8211156121e3576121e2612151565b5b6121ec82612141565b9050602081019050919050565b828183375f83830152505050565b5f612219612214846121c9565b6121af565b9050828152602081018484840111156122355761223461213d565b5b6122408482856121f9565b509392505050565b5f82601f83011261225c5761225b611e40565b5b813561226c848260208601612207565b91505092915050565b5f806040838503121561228b5761228a611de0565b5b5f61229885828601612095565b925050602083013567ffffffffffffffff8111156122b9576122b8611de4565b5b6122c585828601612248565b9150509250929050565b5f63ffffffff82169050919050565b6122e7816122cf565b81146122f1575f80fd5b50565b5f81359050612302816122de565b92915050565b5f805f80606085870312156123205761231f611de0565b5b5f61232d878288016122f4565b945050602061233e87828801611e07565b935050604085013567ffffffffffffffff81111561235f5761235e611de4565b5b61236b87828801611e48565b925092505092959194509250565b5f819050919050565b5f61239c6123976123928461204f565b612379565b61204f565b9050919050565b5f6123ad82612382565b9050919050565b5f6123be826123a3565b9050919050565b6123ce816123b4565b82525050565b5f6020820190506123e75f8301846123c5565b92915050565b5f806040838503121561240357612402611de0565b5b5f61241085828601611e07565b925050602083013567ffffffffffffffff81111561243157612430611de4565b5b61243d85828601612248565b9150509250929050565b6124508161206e565b82525050565b5f6020820190506124695f830184612447565b92915050565b5f6020828403121561248457612483611de0565b5b5f82013567ffffffffffffffff8111156124a1576124a0611de4565b5b6124ad84828501612248565b91505092915050565b5f60ff82169050919050565b6124cb816124b6565b82525050565b5f6060820190506124e45f830186612027565b6124f16020830185612027565b6124fe60408301846124c2565b949350505050565b5f81519050919050565b5f82825260208201905092915050565b8281835e5f83830152505050565b5f61253882612506565b6125428185612510565b9350612552818560208601612520565b61255b81612141565b840191505092915050565b5f6020820190508181035f83015261257e818461252e565b905092915050565b5f805f805f60a0868803121561259f5761259e611de0565b5b5f6125ac88828901611e07565b955050602086013567ffffffffffffffff8111156125cd576125cc611de4565b5b6125d988828901612248565b945050604086013567ffffffffffffffff8111156125fa576125f9611de4565b5b61260688828901612248565b935050606086013567ffffffffffffffff81111561262757612626611de4565b5b61263388828901612248565b925050608061264488828901612095565b9150509295509295909350565b5f805f6060848603121561266857612667611de0565b5b5f61267586828701612095565b935050602061268686828701612095565b925050604061269786828701612095565b9150509250925092565b5f6126ab826123a3565b9050919050565b6126bb816126a1565b82525050565b5f6020820190506126d45f8301846126b2565b92915050565b7f4e487b71000000000000000000000000000000000000000000000000000000005f52602160045260245ffd5b60048110612718576127176126da565b5b50565b5f81905061272882612707565b919050565b5f6127378261271b565b9050919050565b6127478161272d565b82525050565b5f6040820190506127605f83018561273e565b61276d602083018461273e565b9392505050565b82818337505050565b61278960408383612774565b5050565b5f82825260208201905092915050565b5f6127a8838561278d565b93506127b58385846121f9565b6127be83612141565b840190509392505050565b5f6080820190506127dc5f83018861277d565b81810360408301526127ef81868861279d565b9050818103606083015261280481848661279d565b90509695505050505050565b61281981611ff4565b8114612823575f80fd5b50565b5f8151905061283481612810565b92915050565b5f6020828403121561284f5761284e611de0565b5b5f61285c84828501612826565b91505092915050565b5f82905092915050565b7f4e487b71000000000000000000000000000000000000000000000000000000005f52602260045260245ffd5b5f60028204905060018216806128b357607f821691505b6020821081036128c6576128c561286f565b5b50919050565b5f819050815f5260205f209050919050565b5f6020601f8301049050919050565b5f82821b905092915050565b5f600883026129287fffffffffffffffffffffffffffffffffffffffffffffffffffffffffffffffff826128ed565b61293286836128ed565b95508019841693508086168417925050509392505050565b5f819050919050565b5f61296d6129686129638461294a565b612379565b61294a565b9050919050565b5f819050919050565b61298683612953565b61299a61299282612974565b8484546128f9565b825550505050565b5f90565b6129ae6129a2565b6129b981848461297d565b505050565b5b818110156129dc576129d15f826129a6565b6001810190506129bf565b5050565b601f821115612a21576129f2816128cc565b6129fb846128de565b81016020851015612a0a578190505b612a1e612a16856128de565b8301826129be565b50505b505050565b5f82821c905092915050565b5f612a415f1984600802612a26565b1980831691505092915050565b5f612a598383612a32565b9150826002028217905092915050565b612a738383612865565b67ffffffffffffffff811115612a8c57612a8b612151565b5b612a96825461289c565b612aa18282856129e0565b5f601f831160018114612ace575f8415612abc578287013590505b612ac68582612a4e565b865550612b2d565b601f198416612adc866128cc565b5f5b82811015612b0357848901358255600182019150602085019450602081019050612ade565b86831015612b205784890135612b1c601f891682612a32565b8355505b6001600288020188555050505b50505050505050565b5f60a082019050612b495f830189612027565b8181036020830152612b5c81878961279d565b9050612b6b604083018661277d565b8181036080830152612b7e81848661279d565b9050979650505050505050565b612b94816122cf565b82525050565b5f81519050919050565b5f612bae82612b9a565b612bb8818561278d565b9350612bc8818560208601612520565b612bd181612141565b840191505092915050565b5f606082019050612bef5f830186612b8b565b612bfc6020830185612027565b8181036040830152612c0e8184612ba4565b9050949350505050565b5f81519050612c2681611df1565b92915050565b5f60208284031215612c4157612c40611de0565b5b5f612c4e84828501612c18565b91505092915050565b5f612c628385612510565b9350612c6f8385846121f9565b612c7883612141565b840190509392505050565b5f606082019050612c965f830187612b8b565b612ca36020830186612027565b8181036040830152612cb6818486612c57565b905095945050505050565b5f608082019050612cd45f830187612027565b612ce160208301866124c2565b612cee6040830185612027565b612cfb6060830184612027565b95945050505050565b7f696e76616c6964207369676e6174757265206c656e67746800000000000000005f82015250565b5f612d38601883612510565b9150612d4382612d04565b602082019050919050565b5f6020820190508181035f830152612d6581612d2c565b9050919050565b5f819050919050565b612d86612d8182611de8565b612d6c565b82525050565b5f81905092915050565b5f612da082612b9a565b612daa8185612d8c565b9350612dba818560208601612520565b80840191505092915050565b5f612dd18286612d75565b602082019150612de18285612d96565b9150612ded8284612d96565b9150819050949350505050565b5f81905092915050565b7f19457468657265756d205369676e6564204d6573736167653a0a3332000000005f82015250565b5f612e38601c83612dfa565b9150612e4382612e04565b601c82019050919050565b5f612e5882612e2c565b9150612e648284612d75565b60208201915081905092915050565b5f819050919050565b5f67ffffffffffffffff82169050919050565b5f612ea9612ea4612e9f84612e73565b612379565b612e7c565b9050919050565b612eb981612e8f565b82525050565b5f602082019050612ed25f830184612eb0565b92915050565b5f604082019050612eeb5f830185612447565b612ef86020830184612027565b9392505050565b7f4e487b71000000000000000000000000000000000000000000000000000000005f52601160045260245ffd5b5f612f368261294a565b9150612f418361294a565b9250828203905081811115612f5957612f58612eff565b5b92915050565b7f4e487b71000000000000000000000000000000000000000000000000000000005f52603260045260245ffd5b7f4e487b71000000000000000000000000000000000000000000000000000000005f52603160045260245ffd5b5f612fc48284612d96565b91508190509291505056fea26469706673582212202936195f53a5b807ce57ede514a7a1cf328179b2fa73bc06de46c62493c4dc0264736f6c634300081a0033","linkReferences":{}},"methodIdentifiers":{"DEFAULT_ADMIN_ROLE()":"a217fddf","EXECUTOR_ROLE()":"07bd0265","RELAYER_ROLE()":"926d7d7f","UPGRADE_INTERFACE_VERSION()":"ad3cb1cc","addExecutor(address)":"1f5a0bbe","addRelayer(address)":"dd39f00d","executeVRF(bytes32,uint256[2],bytes,bytes,bytes)":"01d47f0c","getRoleAdmin(bytes32)":"248a9ca3","grantRole(bytes32,address)":"2f2ff15d","handle(uint32,bytes32,bytes)":"56d5d475","hasRole(bytes32,address)":"91d14854","initialize(address,address,address)":"c0c53b8b","mailbox()":"d5438eae","proofVerifier()":"7fa417b3","proxiableUUID()":"52d1902d","recoverSigner(bytes32,bytes)":"97aba7f9","renounceRole(bytes32,address)":"36568abe","revokeRole(bytes32,address)":"d547741f","splitSignature(bytes)":"a7bb5803","supportsInterface(bytes4)":"01ffc9a7","upgradeToAndCall(address,bytes)":"4f1ef286","verifyExecutorSignature(bytes32,bytes,bytes,bytes,address)":"b23e0b2a"},"storageLayout":{"storage":[{"astId":53915,"contract":"src/VRFCoreV1.sol:VRFCoreV1","label":"requests","offset":0,"slot":"0","type":"t_mapping(t_bytes32,t_struct(RequestData)53944_storage)"},{"astId":53918,"contract":"src/VRFCoreV1.sol:VRFCoreV1","label":"pendingRequests","offset":0,"slot":"1","type":"t_struct(Bytes32Set)48206_storage"},{"astId":53921,"contract":"src/VRFCoreV1.sol:VRFCoreV1","label":"mailbox","offset":0,"slot":"3","type":"t_contract(IMailbox)39394"},{"astId":53924,"contract":"src/VRFCoreV1.sol:VRFCoreV1","label":"proofVerifier","offset":0,"slot":"4","type":"t_contract(IVRFProofVerifier)54970"}],"types":{"t_address":{"encoding":"inplace","label":"address","numberOfBytes":"20"},"t_array(t_bytes32)dyn_storage":{"encoding":"dynamic_array","label":"bytes32[]","numberOfBytes":"32","base":"t_bytes32"},"t_array(t_uint256)2_storage":{"encoding":"inplace","label":"uint256[2]","numberOfBytes":"64","base":"t_uint256"},"t_bytes32":{"encoding":"inplace","label":"bytes32","numberOfBytes":"32"},"t_bytes_storage":{"encoding":"bytes","label":"bytes","numberOfBytes":"32"},"t_contract(IMailbox)39394":{"encoding":"inplace","label":"contract IMailbox","numberOfBytes":"20"},"t_contract(IVRFProofVerifier)54970":{"encoding":"inplace","label":"contract IVRFProofVerifier","numberOfBytes":"20"},"t_enum(RequestStatus)53949":{"encoding":"inplace","label":"enum VRFCoreV1.RequestStatus","numberOfBytes":"1"},"t_mapping(t_bytes32,t_struct(RequestData)53944_storage)":{"encoding":"mapping","key":"t_bytes32","label":"mapping(bytes32 => struct VRFCoreV1.RequestData)","numberOfBytes":"32","value":"t_struct(RequestData)53944_storage"},"t_mapping(t_bytes32,t_uint256)":{"encoding":"mapping","key":"t_bytes32","label":"mapping(bytes32 => uint256)","numberOfBytes":"32","value":"t_uint256"},"t_struct(Bytes32Set)48206_storage":{"encoding":"inplace","label":"struct EnumerableSet.Bytes32Set","numberOfBytes":"64","members":[{"astId":48205,"contract":"src/VRFCoreV1.sol:VRFCoreV1","label":"_inner","offset":0,"slot":"0","type":"t_struct(Set)47969_storage"}]},"t_struct(RequestData)53944_storage":{"encoding":"inplace","label":"struct VRFCoreV1.RequestData","numberOfBytes":"256","members":[{"astId":53926,"contract":"src/VRFCoreV1.sol:VRFCoreV1","label":"origin","offset":0,"slot":"0","type":"t_uint32"},{"astId":53928,"contract":"src/VRFCoreV1.sol:VRFCoreV1","label":"sender","offset":0,"slot":"1","type":"t_bytes32"},{"astId":53930,"contract":"src/VRFCoreV1.sol:VRFCoreV1","label":"timestamp","offset":0,"slot":"2","type":"t_uint256"},{"astId":53933,"contract":"src/VRFCoreV1.sol:VRFCoreV1","label":"status","offset":0,"slot":"3","type":"t_enum(RequestStatus)53949"},{"astId":53935,"contract":"src/VRFCoreV1.sol:VRFCoreV1","label":"executor","offset":1,"slot":"3","type":"t_address"},{"astId":53939,"contract":"src/VRFCoreV1.sol:VRFCoreV1","label":"executorPublicKey","offset":0,"slot":"4","type":"t_array(t_uint256)2_storage"},{"astId":53941,"contract":"src/VRFCoreV1.sol:VRFCoreV1","label":"proof","offset":0,"slot":"6","type":"t_bytes_storage"},{"astId":53943,"contract":"src/VRFCoreV1.sol:VRFCoreV1","label":"randomness","offset":0,"slot":"7","type":"t_bytes_storage"}]},"t_struct(Set)47969_storage":{"encoding":"inplace","label":"struct EnumerableSet.Set","numberOfBytes":"64","members":[{"astId":47964,"contract":"src/VRFCoreV1.sol:VRFCoreV1","label":"_values","offset":0,"slot":"0","type":"t_array(t_bytes32)dyn_storage"},{"astId":47968,"contract":"src/VRFCoreV1.sol:VRFCoreV1","label":"_positions","offset":0,"slot":"1","type":"t_mapping(t_bytes32,t_uint256)"}]},"t_uint256":{"encoding":"inplace","label":"uint256","numberOfBytes":"32"},"t_uint32":{"encoding":"inplace","label":"uint32","numberOfBytes":"4"}}},"id":72}