{"abi":[{"type":"constructor","inputs":[],"stateMutability":"nonpayable"},{"type":"function","name":"DEFAULT_ADMIN_ROLE","inputs":[],"outputs":[{"name":"","type":"bytes32","internalType":"bytes32"}],"stateMutability":"view"},{"type":"function","name":"RELAYER_ROLE","inputs":[],"outputs":[{"name":"","type":"bytes32","internalType":"bytes32"}],"stateMutability":"view"},{"type":"function","name":"UPGRADE_INTERFACE_VERSION","inputs":[],"outputs":[{"name":"","type":"string","internalType":"string"}],"stateMutability":"view"},{"type":"function","name":"bytesToUint256","inputs":[{"name":"data","type":"bytes","internalType":"bytes"}],"outputs":[{"name":"","type":"uint256","internalType":"uint256"}],"stateMutability":"pure"},{"type":"function","name":"currentChainId","inputs":[],"outputs":[{"name":"","type":"uint32","internalType":"uint32"}],"stateMutability":"view"},{"type":"function","name":"getRoleAdmin","inputs":[{"name":"role","type":"bytes32","internalType":"bytes32"}],"outputs":[{"name":"","type":"bytes32","internalType":"bytes32"}],"stateMutability":"view"},{"type":"function","name":"grantRole","inputs":[{"name":"role","type":"bytes32","internalType":"bytes32"},{"name":"account","type":"address","internalType":"address"}],"outputs":[],"stateMutability":"nonpayable"},{"type":"function","name":"handle","inputs":[{"name":"_origin","type":"uint32","internalType":"uint32"},{"name":"_sender","type":"bytes32","internalType":"bytes32"},{"name":"_message","type":"bytes","internalType":"bytes"}],"outputs":[],"stateMutability":"payable"},{"type":"function","name":"hasRole","inputs":[{"name":"role","type":"bytes32","internalType":"bytes32"},{"name":"account","type":"address","internalType":"address"}],"outputs":[{"name":"","type":"bool","internalType":"bool"}],"stateMutability":"view"},{"type":"function","name":"initialize","inputs":[{"name":"_admin","type":"address","internalType":"address"},{"name":"_proofVerifier","type":"address","internalType":"address"},{"name":"_ism","type":"address","internalType":"address"},{"name":"_mailbox","type":"address","internalType":"address"},{"name":"_currentChainId","type":"uint32","internalType":"uint32"},{"name":"_randomNetworkChainId","type":"uint32","internalType":"uint32"}],"outputs":[],"stateMutability":"nonpayable"},{"type":"function","name":"interchainSecurityModule","inputs":[],"outputs":[{"name":"","type":"address","internalType":"contract IInterchainSecurityModule"}],"stateMutability":"view"},{"type":"function","name":"ism","inputs":[],"outputs":[{"name":"","type":"address","internalType":"contract IInterchainSecurityModule"}],"stateMutability":"view"},{"type":"function","name":"mailbox","inputs":[],"outputs":[{"name":"","type":"address","internalType":"contract IMailbox"}],"stateMutability":"view"},{"type":"function","name":"nonce","inputs":[],"outputs":[{"name":"","type":"uint256","internalType":"uint256"}],"stateMutability":"view"},{"type":"function","name":"proofVerifier","inputs":[],"outputs":[{"name":"","type":"address","internalType":"contract IVRFProofVerifier"}],"stateMutability":"view"},{"type":"function","name":"proxiableUUID","inputs":[],"outputs":[{"name":"","type":"bytes32","internalType":"bytes32"}],"stateMutability":"view"},{"type":"function","name":"randomNetworkChainId","inputs":[],"outputs":[{"name":"","type":"uint32","internalType":"uint32"}],"stateMutability":"view"},{"type":"function","name":"randomNetworkRecipient","inputs":[],"outputs":[{"name":"","type":"bytes32","internalType":"bytes32"}],"stateMutability":"view"},{"type":"function","name":"renounceRole","inputs":[{"name":"role","type":"bytes32","internalType":"bytes32"},{"name":"callerConfirmation","type":"address","internalType":"address"}],"outputs":[],"stateMutability":"nonpayable"},{"type":"function","name":"requestRandomness","inputs":[{"name":"parameters","type":"bytes","internalType":"bytes"},{"name":"callbackGasLimit","type":"uint256","internalType":"uint256"}],"outputs":[{"name":"","type":"bytes32","internalType":"bytes32"}],"stateMutability":"payable"},{"type":"function","name":"requests","inputs":[{"name":"","type":"bytes32","internalType":"bytes32"}],"outputs":[{"name":"requester","type":"address","internalType":"address"},{"name":"parameters","type":"bytes","internalType":"bytes"},{"name":"callbackGasLimit","type":"uint256","internalType":"uint256"},{"name":"fee","type":"uint256","internalType":"uint256"},{"name":"status","type":"uint8","internalType":"enum VRFRequestV1.RequestStatus"}],"stateMutability":"view"},{"type":"function","name":"revokeRole","inputs":[{"name":"role","type":"bytes32","internalType":"bytes32"},{"name":"account","type":"address","internalType":"address"}],"outputs":[],"stateMutability":"nonpayable"},{"type":"function","name":"setRandomNetworkRecipient","inputs":[{"name":"_recipient","type":"address","internalType":"address"}],"outputs":[],"stateMutability":"nonpayable"},{"type":"function","name":"supportsInterface","inputs":[{"name":"interfaceId","type":"bytes4","internalType":"bytes4"}],"outputs":[{"name":"","type":"bool","internalType":"bool"}],"stateMutability":"view"},{"type":"function","name":"upgradeToAndCall","inputs":[{"name":"newImplementation","type":"address","internalType":"address"},{"name":"data","type":"bytes","internalType":"bytes"}],"outputs":[],"stateMutability":"payable"},{"type":"event","name":"Initialized","inputs":[{"name":"version","type":"uint64","indexed":false,"internalType":"uint64"}],"anonymous":false},{"type":"event","name":"RandomnessReceived","inputs":[{"name":"requestId","type":"bytes32","indexed":true,"internalType":"bytes32"},{"name":"randomness","type":"uint256","indexed":false,"internalType":"uint256"},{"name":"status","type":"uint8","indexed":false,"internalType":"enum VRFRequestV1.RequestStatus"}],"anonymous":false},{"type":"event","name":"RandomnessRequested","inputs":[{"name":"requestId","type":"bytes32","indexed":true,"internalType":"bytes32"},{"name":"requester","type":"address","indexed":true,"internalType":"address"}],"anonymous":false},{"type":"event","name":"RoleAdminChanged","inputs":[{"name":"role","type":"bytes32","indexed":true,"internalType":"bytes32"},{"name":"previousAdminRole","type":"bytes32","indexed":true,"internalType":"bytes32"},{"name":"newAdminRole","type":"bytes32","indexed":true,"internalType":"bytes32"}],"anonymous":false},{"type":"event","name":"RoleGranted","inputs":[{"name":"role","type":"bytes32","indexed":true,"internalType":"bytes32"},{"name":"account","type":"address","indexed":true,"internalType":"address"},{"name":"sender","type":"address","indexed":true,"internalType":"address"}],"anonymous":false},{"type":"event","name":"RoleRevoked","inputs":[{"name":"role","type":"bytes32","indexed":true,"internalType":"bytes32"},{"name":"account","type":"address","indexed":true,"internalType":"address"},{"name":"sender","type":"address","indexed":true,"internalType":"address"}],"anonymous":false},{"type":"event","name":"Upgraded","inputs":[{"name":"implementation","type":"address","indexed":true,"internalType":"address"}],"anonymous":false},{"type":"error","name":"AccessControlBadConfirmation","inputs":[]},{"type":"error","name":"AccessControlUnauthorizedAccount","inputs":[{"name":"account","type":"address","internalType":"address"},{"name":"neededRole","type":"bytes32","internalType":"bytes32"}]},{"type":"error","name":"AddressEmptyCode","inputs":[{"name":"target","type":"address","internalType":"address"}]},{"type":"error","name":"ERC1967InvalidImplementation","inputs":[{"name":"implementation","type":"address","internalType":"address"}]},{"type":"error","name":"ERC1967NonPayable","inputs":[]},{"type":"error","name":"FailedCall","inputs":[]},{"type":"error","name":"InvalidInitialization","inputs":[]},{"type":"error","name":"InvalidProof","inputs":[]},{"type":"error","name":"InvalidRequestStatus","inputs":[]},{"type":"error","name":"NotInitializing","inputs":[]},{"type":"error","name":"UUPSUnauthorizedCallContext","inputs":[]},{"type":"error","name":"UUPSUnsupportedProxiableUUID","inputs":[{"name":"slot","type":"bytes32","internalType":"bytes32"}]}],"bytecode":{"object":"0x60a06040523073ffffffffffffffffffffffffffffffffffffffff1660809073ffffffffffffffffffffffffffffffffffffffff16815250348015610042575f80fd5b5061005161005660201b60201c565b6101d1565b5f61006561015460201b60201c565b9050805f0160089054906101000a900460ff16156100af576040517ff92ee8a900000000000000000000000000000000000000000000000000000000815260040160405180910390fd5b67ffffffffffffffff8016815f015f9054906101000a900467ffffffffffffffff1667ffffffffffffffff16146101515767ffffffffffffffff815f015f6101000a81548167ffffffffffffffff021916908367ffffffffffffffff1602179055507fc7f505b2f371ae2175ee4913f4499e1f2633a7b5936321eed1cdaeb6115181d267ffffffffffffffff60405161014891906101b8565b60405180910390a15b50565b5f8061016461016d60201b60201c565b90508091505090565b5f7ff0c57e16840df040f15088dc2f81fe391c3923bec73e23a9662efc9c229c6a005f1b905090565b5f67ffffffffffffffff82169050919050565b6101b281610196565b82525050565b5f6020820190506101cb5f8301846101a9565b92915050565b608051612edb6101f75f395f81816112fa0152818161134f015261150e0152612edb5ff3fe608060405260043610610165575f3560e01c80637fa417b3116100d0578063affed0e011610089578063cc9de25d11610063578063cc9de25d14610509578063d5438eae14610545578063d547741f1461056f578063de523cf31461059757610165565b8063affed0e014610487578063bbf05684146104b1578063c764a699146104d957610165565b80637fa417b31461036357806391d148541461038d578063926d7d7f146103c95780639d866985146103f3578063a217fddf14610433578063ad3cb1cc1461045d57610165565b80635135552611610122578063513555261461027757806352d1902d146102a157806356d5d475146102cb57806362fae97f146102e75780636855425a146103115780636cbadbfa1461033957610165565b806301ffc9a714610169578063248a9ca3146101a55780632f2ff15d146101e157806336568abe146102095780634deefab2146102315780634f1ef2861461025b575b5f80fd5b348015610174575f80fd5b5061018f600480360381019061018a9190611d4a565b6105c1565b60405161019c9190611d8f565b60405180910390f35b3480156101b0575f80fd5b506101cb60048036038101906101c69190611ddb565b61063a565b6040516101d89190611e15565b60405180910390f35b3480156101ec575f80fd5b5061020760048036038101906102029190611e88565b610664565b005b348015610214575f80fd5b5061022f600480360381019061022a9190611e88565b610686565b005b34801561023c575f80fd5b50610245610701565b6040516102529190611f21565b60405180910390f35b61027560048036038101906102709190612076565b610726565b005b348015610282575f80fd5b5061028b610745565b6040516102989190611e15565b60405180910390f35b3480156102ac575f80fd5b506102b561074b565b6040516102c29190611e15565b60405180910390f35b6102e560048036038101906102e09190612166565b61077c565b005b3480156102f2575f80fd5b506102fb6107d8565b60405161030891906121e6565b60405180910390f35b34801561031c575f80fd5b50610337600480360381019061033291906121ff565b6107ee565b005b348015610344575f80fd5b5061034d610ab5565b60405161035a91906121e6565b60405180910390f35b34801561036e575f80fd5b50610377610acb565b60405161038491906122a8565b60405180910390f35b348015610398575f80fd5b506103b360048036038101906103ae9190611e88565b610af0565b6040516103c09190611d8f565b60405180910390f35b3480156103d4575f80fd5b506103dd610b61565b6040516103ea9190611e15565b60405180910390f35b3480156103fe575f80fd5b5061041960048036038101906104149190611ddb565b610b85565b60405161042a9594939291906123bb565b60405180910390f35b34801561043e575f80fd5b50610447610c67565b6040516104549190611e15565b60405180910390f35b348015610468575f80fd5b50610471610c6d565b60405161047e9190612465565b60405180910390f35b348015610492575f80fd5b5061049b610ca6565b6040516104a89190612485565b60405180910390f35b3480156104bc575f80fd5b506104d760048036038101906104d2919061249e565b610cac565b005b6104f360048036038101906104ee91906124f3565b610ccb565b6040516105009190611e15565b60405180910390f35b348015610514575f80fd5b5061052f600480360381019061052a9190612550565b610f8d565b60405161053c9190612485565b60405180910390f35b348015610550575f80fd5b50610559610fee565b60405161056691906125b7565b60405180910390f35b34801561057a575f80fd5b5061059560048036038101906105909190611e88565b611013565b005b3480156105a2575f80fd5b506105ab611035565b6040516105b89190611f21565b60405180910390f35b5f7f7965db0b000000000000000000000000000000000000000000000000000000007bffffffffffffffffffffffffffffffffffffffffffffffffffffffff1916827bffffffffffffffffffffffffffffffffffffffffffffffffffffffff1916148061063357506106328261105d565b5b9050919050565b5f806106446110c6565b9050805f015f8481526020019081526020015f2060010154915050919050565b61066d8261063a565b610676816110ed565b6106808383611101565b50505050565b61068e6111f9565b73ffffffffffffffffffffffffffffffffffffffff168173ffffffffffffffffffffffffffffffffffffffff16146106f2576040517f6697b23200000000000000000000000000000000000000000000000000000000815260040160405180910390fd5b6106fc8282611200565b505050565b60045f9054906101000a900473ffffffffffffffffffffffffffffffffffffffff1681565b61072e6112f8565b610737826113de565b61074182826113ee565b5050565b60055481565b5f61075461150c565b7f360894a13ba1a3210667c828492db98dca3e2076cc3735a920a3ca505d382bbc5f1b905090565b7fe2b7fb3b832174769106daebcfd6d1970523240dda11281102db9363b83b0dc46107a6816110ed565b5f805f8086868101906107b9919061267e565b93509350935093506107cd84838386611593565b505050505050505050565b600460189054906101000a900463ffffffff1681565b5f6107f76118a0565b90505f815f0160089054906101000a900460ff161590505f825f015f9054906101000a900467ffffffffffffffff1690505f808267ffffffffffffffff1614801561083f5750825b90505f60018367ffffffffffffffff1614801561087257505f3073ffffffffffffffffffffffffffffffffffffffff163b145b905081158015610880575080155b156108b7576040517ff92ee8a900000000000000000000000000000000000000000000000000000000815260040160405180910390fd5b6001855f015f6101000a81548167ffffffffffffffff021916908367ffffffffffffffff1602179055508315610904576001855f0160086101000a81548160ff0219169083151502179055505b61090c6118b3565b6109146118bd565b6109205f801b8c611101565b5061094b7fe2b7fb3b832174769106daebcfd6d1970523240dda11281102db9363b83b0dc489611101565b508960035f6101000a81548173ffffffffffffffffffffffffffffffffffffffff021916908373ffffffffffffffffffffffffffffffffffffffff1602179055508760025f6101000a81548173ffffffffffffffffffffffffffffffffffffffff021916908373ffffffffffffffffffffffffffffffffffffffff1602179055508860045f6101000a81548173ffffffffffffffffffffffffffffffffffffffff021916908373ffffffffffffffffffffffffffffffffffffffff16021790555086600460146101000a81548163ffffffff021916908363ffffffff16021790555085600460186101000a81548163ffffffff021916908363ffffffff1602179055508315610aa8575f855f0160086101000a81548160ff0219169083151502179055507fc7f505b2f371ae2175ee4913f4499e1f2633a7b5936321eed1cdaeb6115181d26001604051610a9f9190612766565b60405180910390a15b5050505050505050505050565b600460149054906101000a900463ffffffff1681565b60035f9054906101000a900473ffffffffffffffffffffffffffffffffffffffff1681565b5f80610afa6110c6565b9050805f015f8581526020019081526020015f205f015f8473ffffffffffffffffffffffffffffffffffffffff1673ffffffffffffffffffffffffffffffffffffffff1681526020019081526020015f205f9054906101000a900460ff1691505092915050565b7fe2b7fb3b832174769106daebcfd6d1970523240dda11281102db9363b83b0dc481565b5f602052805f5260405f205f91509050805f015f9054906101000a900473ffffffffffffffffffffffffffffffffffffffff1690806001018054610bc8906127ac565b80601f0160208091040260200160405190810160405280929190818152602001828054610bf4906127ac565b8015610c3f5780601f10610c1657610100808354040283529160200191610c3f565b820191905f5260205f20905b815481529060010190602001808311610c2257829003601f168201915b505050505090806002015490806003015490806004015f9054906101000a900460ff16905085565b5f801b81565b6040518060400160405280600581526020017f352e302e3000000000000000000000000000000000000000000000000000000081525081565b60015481565b5f801b610cb8816110ed565b610cc1826118c7565b6005819055505050565b5f80600460149054906101000a900463ffffffff163360015f815480929190610cf390612809565b9190505543604051602001610d0b9493929190612850565b6040516020818303038152906040528051906020012090506040518060a001604052803373ffffffffffffffffffffffffffffffffffffffff16815260200186868080601f0160208091040260200160405190810160405280939291908181526020018383808284375f81840152601f19601f8201169050808301925050505050505081526020018481526020013481526020015f6002811115610db257610db1612348565b5b8152505f808381526020019081526020015f205f820151815f015f6101000a81548173ffffffffffffffffffffffffffffffffffffffff021916908373ffffffffffffffffffffffffffffffffffffffff1602179055506020820151816001019081610e1e9190612a27565b5060408201518160020155606082015181600301556080820151816004015f6101000a81548160ff02191690836002811115610e5d57610e5c612348565b5b02179055509050505f81604051602001610e779190611e15565b604051602081830303815290604052905060025f9054906101000a900473ffffffffffffffffffffffffffffffffffffffff1673ffffffffffffffffffffffffffffffffffffffff1663fa31de0134600460189054906101000a900463ffffffff16600554856040518563ffffffff1660e01b8152600401610efb93929190612af6565b60206040518083038185885af1158015610f17573d5f803e3d5ffd5b50505050506040513d601f19601f82011682018060405250810190610f3c9190612b46565b503373ffffffffffffffffffffffffffffffffffffffff16827f24824956716588cf18c3cb557ee25fa952255246eb51235316882371d343c35560405160405180910390a381925050509392505050565b5f602082511015610fd3576040517f08c379a0000000000000000000000000000000000000000000000000000000008152600401610fca90612bbb565b60405180910390fd5b81806020019051810190610fe79190612bed565b9050919050565b60025f9054906101000a900473ffffffffffffffffffffffffffffffffffffffff1681565b61101c8261063a565b611025816110ed565b61102f8383611200565b50505050565b5f60045f9054906101000a900473ffffffffffffffffffffffffffffffffffffffff16905090565b5f7f01ffc9a7000000000000000000000000000000000000000000000000000000007bffffffffffffffffffffffffffffffffffffffffffffffffffffffff1916827bffffffffffffffffffffffffffffffffffffffffffffffffffffffff1916149050919050565b5f7f02dd7bc7dec4dceedda775e58dd541e08a116c6c53815c0bd028192f7b626800905090565b6110fe816110f96111f9565b6118e8565b50565b5f8061110b6110c6565b90506111178484610af0565b6111ee576001815f015f8681526020019081526020015f205f015f8573ffffffffffffffffffffffffffffffffffffffff1673ffffffffffffffffffffffffffffffffffffffff1681526020019081526020015f205f6101000a81548160ff02191690831515021790555061118a6111f9565b73ffffffffffffffffffffffffffffffffffffffff168373ffffffffffffffffffffffffffffffffffffffff16857f2f8788117e7eff1d82e926ec794901d17c78024a50270940304540a733656f0d60405160405180910390a460019150506111f3565b5f9150505b92915050565b5f33905090565b5f8061120a6110c6565b90506112168484610af0565b156112ed575f815f015f8681526020019081526020015f205f015f8573ffffffffffffffffffffffffffffffffffffffff1673ffffffffffffffffffffffffffffffffffffffff1681526020019081526020015f205f6101000a81548160ff0219169083151502179055506112896111f9565b73ffffffffffffffffffffffffffffffffffffffff168373ffffffffffffffffffffffffffffffffffffffff16857ff6391f5c32d9c69d2a47ea670b442974b53935d1edc7fd64eb21e047a839171b60405160405180910390a460019150506112f2565b5f9150505b92915050565b7f000000000000000000000000000000000000000000000000000000000000000073ffffffffffffffffffffffffffffffffffffffff163073ffffffffffffffffffffffffffffffffffffffff1614806113a557507f000000000000000000000000000000000000000000000000000000000000000073ffffffffffffffffffffffffffffffffffffffff1661138c611939565b73ffffffffffffffffffffffffffffffffffffffff1614155b156113dc576040517fe07c8dba00000000000000000000000000000000000000000000000000000000815260040160405180910390fd5b565b5f801b6113ea816110ed565b5050565b8173ffffffffffffffffffffffffffffffffffffffff166352d1902d6040518163ffffffff1660e01b8152600401602060405180830381865afa92505050801561145657506040513d601f19601f820116820180604052508101906114539190612b46565b60015b61149757816040517f4c9c8ce300000000000000000000000000000000000000000000000000000000815260040161148e9190612c18565b60405180910390fd5b7f360894a13ba1a3210667c828492db98dca3e2076cc3735a920a3ca505d382bbc5f1b81146114fd57806040517faa1d49a40000000000000000000000000000000000000000000000000000000081526004016114f49190611e15565b60405180910390fd5b611507838361198c565b505050565b7f000000000000000000000000000000000000000000000000000000000000000073ffffffffffffffffffffffffffffffffffffffff163073ffffffffffffffffffffffffffffffffffffffff1614611591576040517fe07c8dba00000000000000000000000000000000000000000000000000000000815260040160405180910390fd5b565b5f805f8681526020019081526020015f2090505f60028111156115b9576115b8612348565b5b816004015f9054906101000a900460ff1660028111156115dc576115db612348565b5b14611613576040517f2efb6afd00000000000000000000000000000000000000000000000000000000815260040160405180910390fd5b60035f9054906101000a900473ffffffffffffffffffffffffffffffffffffffff1673ffffffffffffffffffffffffffffffffffffffff1663a90ec1c58585856040518463ffffffff1660e01b815260040161167193929190612cd6565b602060405180830381865afa15801561168c573d5f803e3d5ffd5b505050506040513d601f19601f820116820180604052508101906116b09190612d43565b6116e6576040517f09bde33900000000000000000000000000000000000000000000000000000000815260040160405180910390fd5b5f6116f083610f8d565b90505f825f015f9054906101000a900473ffffffffffffffffffffffffffffffffffffffff1673ffffffffffffffffffffffffffffffffffffffff168360020154604051806060016040528060228152602001612e8460229139898560405160240161175d929190612d6e565b6040516020818303038152906040529060405161177a9190612dcf565b60405180910390207bffffffffffffffffffffffffffffffffffffffffffffffffffffffff19166020820180517bffffffffffffffffffffffffffffffffffffffffffffffffffffffff83818316178352505050506040516117dc9190612e1f565b5f604051808303815f8787f1925050503d805f8114611816576040519150601f19603f3d011682016040523d82523d5f602084013e61181b565b606091505b505090505f8161182c57600261182f565b60015b905080846004015f6101000a81548160ff0219169083600281111561185757611856612348565b5b0217905550877ff84bef8a22b29dc2466e22013621ad3d08fa0f3daeab49ad9b4c3c74b5d9f2b0848360405161188e929190612e35565b60405180910390a25050505050505050565b5f806118aa6119fe565b90508091505090565b6118bb611a27565b565b6118c5611a27565b565b5f8173ffffffffffffffffffffffffffffffffffffffff165f1b9050919050565b6118f28282610af0565b6119355780826040517fe2517d3f00000000000000000000000000000000000000000000000000000000815260040161192c929190612e5c565b60405180910390fd5b5050565b5f6119657f360894a13ba1a3210667c828492db98dca3e2076cc3735a920a3ca505d382bbc5f1b611a67565b5f015f9054906101000a900473ffffffffffffffffffffffffffffffffffffffff16905090565b61199582611a70565b8173ffffffffffffffffffffffffffffffffffffffff167fbc7cd75a20ee27fd9adebab32041f755214dbc6bffa90cc0225b39da2e5c2d3b60405160405180910390a25f815111156119f1576119eb8282611b39565b506119fa565b6119f9611bb9565b5b5050565b5f7ff0c57e16840df040f15088dc2f81fe391c3923bec73e23a9662efc9c229c6a005f1b905090565b611a2f611bf5565b611a65576040517fd7e6bcf800000000000000000000000000000000000000000000000000000000815260040160405180910390fd5b565b5f819050919050565b5f8173ffffffffffffffffffffffffffffffffffffffff163b03611acb57806040517f4c9c8ce3000000000000000000000000000000000000000000000000000000008152600401611ac29190612c18565b60405180910390fd5b80611af77f360894a13ba1a3210667c828492db98dca3e2076cc3735a920a3ca505d382bbc5f1b611a67565b5f015f6101000a81548173ffffffffffffffffffffffffffffffffffffffff021916908373ffffffffffffffffffffffffffffffffffffffff16021790555050565b60605f808473ffffffffffffffffffffffffffffffffffffffff1684604051611b629190612e1f565b5f60405180830381855af49150503d805f8114611b9a576040519150601f19603f3d011682016040523d82523d5f602084013e611b9f565b606091505b5091509150611baf858383611c13565b9250505092915050565b5f341115611bf3576040517fb398979f00000000000000000000000000000000000000000000000000000000815260040160405180910390fd5b565b5f611bfe6118a0565b5f0160089054906101000a900460ff16905090565b606082611c2857611c2382611ca0565b611c98565b5f8251148015611c4e57505f8473ffffffffffffffffffffffffffffffffffffffff163b145b15611c9057836040517f9996b315000000000000000000000000000000000000000000000000000000008152600401611c879190612c18565b60405180910390fd5b819050611c99565b5b9392505050565b5f81511115611cb25780518082602001fd5b6040517fd6bda27500000000000000000000000000000000000000000000000000000000815260040160405180910390fd5b5f604051905090565b5f80fd5b5f80fd5b5f7fffffffff0000000000000000000000000000000000000000000000000000000082169050919050565b611d2981611cf5565b8114611d33575f80fd5b50565b5f81359050611d4481611d20565b92915050565b5f60208284031215611d5f57611d5e611ced565b5b5f611d6c84828501611d36565b91505092915050565b5f8115159050919050565b611d8981611d75565b82525050565b5f602082019050611da25f830184611d80565b92915050565b5f819050919050565b611dba81611da8565b8114611dc4575f80fd5b50565b5f81359050611dd581611db1565b92915050565b5f60208284031215611df057611def611ced565b5b5f611dfd84828501611dc7565b91505092915050565b611e0f81611da8565b82525050565b5f602082019050611e285f830184611e06565b92915050565b5f73ffffffffffffffffffffffffffffffffffffffff82169050919050565b5f611e5782611e2e565b9050919050565b611e6781611e4d565b8114611e71575f80fd5b50565b5f81359050611e8281611e5e565b92915050565b5f8060408385031215611e9e57611e9d611ced565b5b5f611eab85828601611dc7565b9250506020611ebc85828601611e74565b9150509250929050565b5f819050919050565b5f611ee9611ee4611edf84611e2e565b611ec6565b611e2e565b9050919050565b5f611efa82611ecf565b9050919050565b5f611f0b82611ef0565b9050919050565b611f1b81611f01565b82525050565b5f602082019050611f345f830184611f12565b92915050565b5f80fd5b5f80fd5b5f601f19601f8301169050919050565b7f4e487b71000000000000000000000000000000000000000000000000000000005f52604160045260245ffd5b611f8882611f42565b810181811067ffffffffffffffff82111715611fa757611fa6611f52565b5b80604052505050565b5f611fb9611ce4565b9050611fc58282611f7f565b919050565b5f67ffffffffffffffff821115611fe457611fe3611f52565b5b611fed82611f42565b9050602081019050919050565b828183375f83830152505050565b5f61201a61201584611fca565b611fb0565b90508281526020810184848401111561203657612035611f3e565b5b612041848285611ffa565b509392505050565b5f82601f83011261205d5761205c611f3a565b5b813561206d848260208601612008565b91505092915050565b5f806040838503121561208c5761208b611ced565b5b5f61209985828601611e74565b925050602083013567ffffffffffffffff8111156120ba576120b9611cf1565b5b6120c685828601612049565b9150509250929050565b5f63ffffffff82169050919050565b6120e8816120d0565b81146120f2575f80fd5b50565b5f81359050612103816120df565b92915050565b5f80fd5b5f80fd5b5f8083601f84011261212657612125611f3a565b5b8235905067ffffffffffffffff81111561214357612142612109565b5b60208301915083600182028301111561215f5761215e61210d565b5b9250929050565b5f805f806060858703121561217e5761217d611ced565b5b5f61218b878288016120f5565b945050602061219c87828801611dc7565b935050604085013567ffffffffffffffff8111156121bd576121bc611cf1565b5b6121c987828801612111565b925092505092959194509250565b6121e0816120d0565b82525050565b5f6020820190506121f95f8301846121d7565b92915050565b5f805f805f8060c0878903121561221957612218611ced565b5b5f61222689828a01611e74565b965050602061223789828a01611e74565b955050604061224889828a01611e74565b945050606061225989828a01611e74565b935050608061226a89828a016120f5565b92505060a061227b89828a016120f5565b9150509295509295509295565b5f61229282611ef0565b9050919050565b6122a281612288565b82525050565b5f6020820190506122bb5f830184612299565b92915050565b6122ca81611e4d565b82525050565b5f81519050919050565b5f82825260208201905092915050565b8281835e5f83830152505050565b5f612302826122d0565b61230c81856122da565b935061231c8185602086016122ea565b61232581611f42565b840191505092915050565b5f819050919050565b61234281612330565b82525050565b7f4e487b71000000000000000000000000000000000000000000000000000000005f52602160045260245ffd5b6003811061238657612385612348565b5b50565b5f81905061239682612375565b919050565b5f6123a582612389565b9050919050565b6123b58161239b565b82525050565b5f60a0820190506123ce5f8301886122c1565b81810360208301526123e081876122f8565b90506123ef6040830186612339565b6123fc6060830185612339565b61240960808301846123ac565b9695505050505050565b5f81519050919050565b5f82825260208201905092915050565b5f61243782612413565b612441818561241d565b93506124518185602086016122ea565b61245a81611f42565b840191505092915050565b5f6020820190508181035f83015261247d818461242d565b905092915050565b5f6020820190506124985f830184612339565b92915050565b5f602082840312156124b3576124b2611ced565b5b5f6124c084828501611e74565b91505092915050565b6124d281612330565b81146124dc575f80fd5b50565b5f813590506124ed816124c9565b92915050565b5f805f6040848603121561250a57612509611ced565b5b5f84013567ffffffffffffffff81111561252757612526611cf1565b5b61253386828701612111565b93509350506020612546868287016124df565b9150509250925092565b5f6020828403121561256557612564611ced565b5b5f82013567ffffffffffffffff81111561258257612581611cf1565b5b61258e84828501612049565b91505092915050565b5f6125a182611ef0565b9050919050565b6125b181612597565b82525050565b5f6020820190506125ca5f8301846125a8565b92915050565b5f67ffffffffffffffff8211156125ea576125e9611f52565b5b602082029050919050565b5f612607612602846125d0565b611fb0565b905080602084028301858111156126215761262061210d565b5b835b8181101561264a578061263688826124df565b845260208401935050602081019050612623565b5050509392505050565b5f82601f83011261266857612667611f3a565b5b60026126758482856125f5565b91505092915050565b5f805f8060a0858703121561269657612695611ced565b5b5f6126a387828801611dc7565b945050602085013567ffffffffffffffff8111156126c4576126c3611cf1565b5b6126d087828801612049565b93505060406126e187828801612654565b925050608085013567ffffffffffffffff81111561270257612701611cf1565b5b61270e87828801612049565b91505092959194509250565b5f819050919050565b5f67ffffffffffffffff82169050919050565b5f61275061274b6127468461271a565b611ec6565b612723565b9050919050565b61276081612736565b82525050565b5f6020820190506127795f830184612757565b92915050565b7f4e487b71000000000000000000000000000000000000000000000000000000005f52602260045260245ffd5b5f60028204905060018216806127c357607f821691505b6020821081036127d6576127d561277f565b5b50919050565b7f4e487b71000000000000000000000000000000000000000000000000000000005f52601160045260245ffd5b5f61281382612330565b91507fffffffffffffffffffffffffffffffffffffffffffffffffffffffffffffffff8203612845576128446127dc565b5b600182019050919050565b5f6080820190506128635f8301876121d7565b61287060208301866122c1565b61287d6040830185612339565b61288a6060830184612339565b95945050505050565b5f819050815f5260205f209050919050565b5f6020601f8301049050919050565b5f82821b905092915050565b5f600883026128ef7fffffffffffffffffffffffffffffffffffffffffffffffffffffffffffffffff826128b4565b6128f986836128b4565b95508019841693508086168417925050509392505050565b5f61292b61292661292184612330565b611ec6565b612330565b9050919050565b5f819050919050565b61294483612911565b61295861295082612932565b8484546128c0565b825550505050565b5f90565b61296c612960565b61297781848461293b565b505050565b5b8181101561299a5761298f5f82612964565b60018101905061297d565b5050565b601f8211156129df576129b081612893565b6129b9846128a5565b810160208510156129c8578190505b6129dc6129d4856128a5565b83018261297c565b50505b505050565b5f82821c905092915050565b5f6129ff5f19846008026129e4565b1980831691505092915050565b5f612a1783836129f0565b9150826002028217905092915050565b612a30826122d0565b67ffffffffffffffff811115612a4957612a48611f52565b5b612a5382546127ac565b612a5e82828561299e565b5f60209050601f831160018114612a8f575f8415612a7d578287015190505b612a878582612a0c565b865550612aee565b601f198416612a9d86612893565b5f5b82811015612ac457848901518255600182019150602085019450602081019050612a9f565b86831015612ae15784890151612add601f8916826129f0565b8355505b6001600288020188555050505b505050505050565b5f606082019050612b095f8301866121d7565b612b166020830185611e06565b8181036040830152612b2881846122f8565b9050949350505050565b5f81519050612b4081611db1565b92915050565b5f60208284031215612b5b57612b5a611ced565b5b5f612b6884828501612b32565b91505092915050565b7f427974657320617272617920746f6f2073686f727400000000000000000000005f82015250565b5f612ba560158361241d565b9150612bb082612b71565b602082019050919050565b5f6020820190508181035f830152612bd281612b99565b9050919050565b5f81519050612be7816124c9565b92915050565b5f60208284031215612c0257612c01611ced565b5b5f612c0f84828501612bd9565b91505092915050565b5f602082019050612c2b5f8301846122c1565b92915050565b5f60029050919050565b5f81905092915050565b5f819050919050565b612c5781612330565b82525050565b5f612c688383612c4e565b60208301905092915050565b5f602082019050919050565b612c8981612c31565b612c938184612c3b565b9250612c9e82612c45565b805f5b83811015612cce578151612cb58782612c5d565b9650612cc083612c74565b925050600181019050612ca1565b505050505050565b5f608082019050612ce95f830186612c80565b8181036040830152612cfb81856122f8565b90508181036060830152612d0f81846122f8565b9050949350505050565b612d2281611d75565b8114612d2c575f80fd5b50565b5f81519050612d3d81612d19565b92915050565b5f60208284031215612d5857612d57611ced565b5b5f612d6584828501612d2f565b91505092915050565b5f604082019050612d815f830185611e06565b612d8e6020830184612339565b9392505050565b5f81905092915050565b5f612da982612413565b612db38185612d95565b9350612dc38185602086016122ea565b80840191505092915050565b5f612dda8284612d9f565b915081905092915050565b5f81905092915050565b5f612df9826122d0565b612e038185612de5565b9350612e138185602086016122ea565b80840191505092915050565b5f612e2a8284612def565b915081905092915050565b5f604082019050612e485f830185612339565b612e5560208301846123ac565b9392505050565b5f604082019050612e6f5f8301856122c1565b612e7c6020830184611e06565b939250505056fe7265636569766552616e646f6d6e65737328627974657333322c75696e7432353629a264697066735822122013ae3bdcf1e9dd180b40d2e23550234d9d9d9f6d60a125bc9246351ee5a795e564736f6c634300081a0033","linkReferences":{}},"methodIdentifiers":{"DEFAULT_ADMIN_ROLE()":"a217fddf","RELAYER_ROLE()":"926d7d7f","UPGRADE_INTERFACE_VERSION()":"ad3cb1cc","bytesToUint256(bytes)":"cc9de25d","currentChainId()":"6cbadbfa","getRoleAdmin(bytes32)":"248a9ca3","grantRole(bytes32,address)":"2f2ff15d","handle(uint32,bytes32,bytes)":"56d5d475","hasRole(bytes32,address)":"91d14854","initialize(address,address,address,address,uint32,uint32)":"6855425a","interchainSecurityModule()":"de523cf3","ism()":"4deefab2","mailbox()":"d5438eae","nonce()":"affed0e0","proofVerifier()":"7fa417b3","proxiableUUID()":"52d1902d","randomNetworkChainId()":"62fae97f","randomNetworkRecipient()":"51355526","renounceRole(bytes32,address)":"36568abe","requestRandomness(bytes,uint256)":"c764a699","requests(bytes32)":"9d866985","revokeRole(bytes32,address)":"d547741f","setRandomNetworkRecipient(address)":"bbf05684","supportsInterface(bytes4)":"01ffc9a7","upgradeToAndCall(address,bytes)":"4f1ef286"},"storageLayout":{"storage":[{"astId":54509,"contract":"src/VRFRequestV1.sol:VRFRequestV1","label":"requests","offset":0,"slot":"0","type":"t_mapping(t_bytes32,t_struct(Request)54546_storage)"},{"astId":54511,"contract":"src/VRFRequestV1.sol:VRFRequestV1","label":"nonce","offset":0,"slot":"1","type":"t_uint256"},{"astId":54514,"contract":"src/VRFRequestV1.sol:VRFRequestV1","label":"mailbox","offset":0,"slot":"2","type":"t_contract(IMailbox)39394"},{"astId":54517,"contract":"src/VRFRequestV1.sol:VRFRequestV1","label":"proofVerifier","offset":0,"slot":"3","type":"t_contract(IVRFProofVerifier)54970"},{"astId":54520,"contract":"src/VRFRequestV1.sol:VRFRequestV1","label":"ism","offset":0,"slot":"4","type":"t_contract(IInterchainSecurityModule)39220"},{"astId":54522,"contract":"src/VRFRequestV1.sol:VRFRequestV1","label":"currentChainId","offset":20,"slot":"4","type":"t_uint32"},{"astId":54524,"contract":"src/VRFRequestV1.sol:VRFRequestV1","label":"randomNetworkChainId","offset":24,"slot":"4","type":"t_uint32"},{"astId":54526,"contract":"src/VRFRequestV1.sol:VRFRequestV1","label":"randomNetworkRecipient","offset":0,"slot":"5","type":"t_bytes32"}],"types":{"t_address":{"encoding":"inplace","label":"address","numberOfBytes":"20"},"t_bytes32":{"encoding":"inplace","label":"bytes32","numberOfBytes":"32"},"t_bytes_storage":{"encoding":"bytes","label":"bytes","numberOfBytes":"32"},"t_contract(IInterchainSecurityModule)39220":{"encoding":"inplace","label":"contract IInterchainSecurityModule","numberOfBytes":"20"},"t_contract(IMailbox)39394":{"encoding":"inplace","label":"contract IMailbox","numberOfBytes":"20"},"t_contract(IVRFProofVerifier)54970":{"encoding":"inplace","label":"contract IVRFProofVerifier","numberOfBytes":"20"},"t_enum(RequestStatus)54550":{"encoding":"inplace","label":"enum VRFRequestV1.RequestStatus","numberOfBytes":"1"},"t_mapping(t_bytes32,t_struct(Request)54546_storage)":{"encoding":"mapping","key":"t_bytes32","label":"mapping(bytes32 => struct VRFRequestV1.Request)","numberOfBytes":"32","value":"t_struct(Request)54546_storage"},"t_struct(Request)54546_storage":{"encoding":"inplace","label":"struct VRFRequestV1.Request","numberOfBytes":"160","members":[{"astId":54536,"contract":"src/VRFRequestV1.sol:VRFRequestV1","label":"requester","offset":0,"slot":"0","type":"t_address"},{"astId":54538,"contract":"src/VRFRequestV1.sol:VRFRequestV1","label":"parameters","offset":0,"slot":"1","type":"t_bytes_storage"},{"astId":54540,"contract":"src/VRFRequestV1.sol:VRFRequestV1","label":"callbackGasLimit","offset":0,"slot":"2","type":"t_uint256"},{"astId":54542,"contract":"src/VRFRequestV1.sol:VRFRequestV1","label":"fee","offset":0,"slot":"3","type":"t_uint256"},{"astId":54545,"contract":"src/VRFRequestV1.sol:VRFRequestV1","label":"status","offset":0,"slot":"4","type":"t_enum(RequestStatus)54550"}]},"t_uint256":{"encoding":"inplace","label":"uint256","numberOfBytes":"32"},"t_uint32":{"encoding":"inplace","label":"uint32","numberOfBytes":"4"}}},"id":74}