{"abi":[{"type":"constructor","inputs":[{"name":"_vrfRequest","type":"address","internalType":"address"}],"stateMutability":"nonpayable"},{"type":"function","name":"randomnes","inputs":[{"name":"","type":"bytes32","internalType":"bytes32"}],"outputs":[{"name":"","type":"uint256","internalType":"uint256"}],"stateMutability":"view"},{"type":"function","name":"receiveRandomness","inputs":[{"name":"requestId","type":"bytes32","internalType":"bytes32"},{"name":"randomness","type":"uint256","internalType":"uint256"}],"outputs":[],"stateMutability":"nonpayable"},{"type":"function","name":"requestRandomness","inputs":[{"name":"parameters","type":"bytes","internalType":"bytes"},{"name":"callbackGasLimit","type":"uint256","internalType":"uint256"}],"outputs":[{"name":"","type":"bytes32","internalType":"bytes32"}],"stateMutability":"payable"},{"type":"function","name":"vrfRequest","inputs":[],"outputs":[{"name":"","type":"address","internalType":"contract IVRFRequester"}],"stateMutability":"view"}],"bytecode":{"object":"0x608060405234801561000f575f80fd5b5060405161067e38038061067e833981810160405281019061003191906100d4565b805f806101000a81548173ffffffffffffffffffffffffffffffffffffffff021916908373ffffffffffffffffffffffffffffffffffffffff160217905550506100ff565b5f80fd5b5f73ffffffffffffffffffffffffffffffffffffffff82169050919050565b5f6100a38261007a565b9050919050565b6100b381610099565b81146100bd575f80fd5b50565b5f815190506100ce816100aa565b92915050565b5f602082840312156100e9576100e8610076565b5b5f6100f6848285016100c0565b91505092915050565b6105728061010c5f395ff3fe60806040526004361061003e575f3560e01c806321180cf8146100425780632ac1e9751461007e5780633e23b145146100a6578063c764a699146100d0575b5f80fd5b34801561004d575f80fd5b5061006860048036038101906100639190610236565b610100565b6040516100759190610279565b60405180910390f35b348015610089575f80fd5b506100a4600480360381019061009f91906102bc565b610115565b005b3480156100b1575f80fd5b506100ba61012f565b6040516100c79190610374565b60405180910390f35b6100ea60048036038101906100e591906103ee565b610152565b6040516100f7919061045a565b60405180910390f35b6001602052805f5260405f205f915090505481565b8060015f8481526020019081526020015f20819055505050565b5f8054906101000a900473ffffffffffffffffffffffffffffffffffffffff1681565b5f805f9054906101000a900473ffffffffffffffffffffffffffffffffffffffff1673ffffffffffffffffffffffffffffffffffffffff1663c764a699348686866040518563ffffffff1660e01b81526004016101b1939291906104cd565b60206040518083038185885af11580156101cd573d5f803e3d5ffd5b50505050506040513d601f19601f820116820180604052508101906101f29190610511565b90509392505050565b5f80fd5b5f80fd5b5f819050919050565b61021581610203565b811461021f575f80fd5b50565b5f813590506102308161020c565b92915050565b5f6020828403121561024b5761024a6101fb565b5b5f61025884828501610222565b91505092915050565b5f819050919050565b61027381610261565b82525050565b5f60208201905061028c5f83018461026a565b92915050565b61029b81610261565b81146102a5575f80fd5b50565b5f813590506102b681610292565b92915050565b5f80604083850312156102d2576102d16101fb565b5b5f6102df85828601610222565b92505060206102f0858286016102a8565b9150509250929050565b5f73ffffffffffffffffffffffffffffffffffffffff82169050919050565b5f819050919050565b5f61033c610337610332846102fa565b610319565b6102fa565b9050919050565b5f61034d82610322565b9050919050565b5f61035e82610343565b9050919050565b61036e81610354565b82525050565b5f6020820190506103875f830184610365565b92915050565b5f80fd5b5f80fd5b5f80fd5b5f8083601f8401126103ae576103ad61038d565b5b8235905067ffffffffffffffff8111156103cb576103ca610391565b5b6020830191508360018202830111156103e7576103e6610395565b5b9250929050565b5f805f60408486031215610405576104046101fb565b5b5f84013567ffffffffffffffff811115610422576104216101ff565b5b61042e86828701610399565b93509350506020610441868287016102a8565b9150509250925092565b61045481610203565b82525050565b5f60208201905061046d5f83018461044b565b92915050565b5f82825260208201905092915050565b828183375f83830152505050565b5f601f19601f8301169050919050565b5f6104ac8385610473565b93506104b9838584610483565b6104c283610491565b840190509392505050565b5f6040820190508181035f8301526104e68185876104a1565b90506104f5602083018461026a565b949350505050565b5f8151905061050b8161020c565b92915050565b5f60208284031215610526576105256101fb565b5b5f610533848285016104fd565b9150509291505056fea2646970667358221220693a41776954519fc051bb363becf82dbd73f36945e7abd591cd27ec920efb5e64736f6c634300081a0033","linkReferences":{}},"methodIdentifiers":{"randomnes(bytes32)":"21180cf8","receiveRandomness(bytes32,uint256)":"2ac1e975","requestRandomness(bytes,uint256)":"c764a699","vrfRequest()":"3e23b145"},"storageLayout":{"storage":[{"astId":57178,"contract":"src/mocks/VRFRequestClient.sol:VRFRequestClient","label":"vrfRequest","offset":0,"slot":"0","type":"t_contract(IVRFRequester)54982"},{"astId":57182,"contract":"src/mocks/VRFRequestClient.sol:VRFRequestClient","label":"randomnes","offset":0,"slot":"1","type":"t_mapping(t_bytes32,t_uint256)"}],"types":{"t_bytes32":{"encoding":"inplace","label":"bytes32","numberOfBytes":"32"},"t_contract(IVRFRequester)54982":{"encoding":"inplace","label":"contract IVRFRequester","numberOfBytes":"20"},"t_mapping(t_bytes32,t_uint256)":{"encoding":"mapping","key":"t_bytes32","label":"mapping(bytes32 => uint256)","numberOfBytes":"32","value":"t_uint256"},"t_uint256":{"encoding":"inplace","label":"uint256","numberOfBytes":"32"}}},"id":82}